{
  "transactions": [
    {
      "hash": "0xbd8546240a88107c5dad23bfa34202649bc526803c9c24ab668402031a28dc5b",
      "transactionType": "CALL",
      "contractName": null,
      "contractAddress": "0x6dA226CF30ff2482D5b015cC8EA889A6b4d37992",
      "function": "approve(address,uint256)",
      "arguments": [
        "0xd962b16F4ec712D705106674E944B04614F077be",
        "1000000000000000000000"
      ],
      "transaction": {
        "type": "0x02",
        "from": "0x49a8263044b8f24f316d19a79d1bac55f6f35b35",
        "to": "0x6da226cf30ff2482d5b015cc8ea889a6b4d37992",
        "gas": "0x1e5e1",
        "value": "0x0",
        "data": "0x095ea7b3000000000000000000000000d962b16f4ec712d705106674e944b04614f077be00000000000000000000000000000000000000000000003635c9adc5dea00000",
        "nonce": "0xf",
        "accessList": []
      },
      "additionalContracts": [],
      "isFixedGasLimit": false
    },
    {
      "hash": "0x0192fad3dcf04531605888e68c8d124decc047f96ca812d39bcb6e7ab15d36c3",
      "transactionType": "CALL",
      "contractName": null,
      "contractAddress": "0x76B97C7Af48A715b3CE9Fc3F11e43903F90040d7",
      "function": "approve(address,uint256)",
      "arguments": [
        "0xd962b16F4ec712D705106674E944B04614F077be",
        "1000000000000000000000"
      ],
      "transaction": {
        "type": "0x02",
        "from": "0x49a8263044b8f24f316d19a79d1bac55f6f35b35",
        "to": "0x76b97c7af48a715b3ce9fc3f11e43903f90040d7",
        "gas": "0x1e5e1",
        "value": "0x0",
        "data": "0x095ea7b3000000000000000000000000d962b16f4ec712d705106674e944b04614f077be00000000000000000000000000000000000000000000003635c9adc5dea00000",
        "nonce": "0x10",
        "accessList": []
      },
      "additionalContracts": [],
      "isFixedGasLimit": false
    },
    {
      "hash": "0x123aea85624f7eac0a5830cc7771971292d563446d47a780dfb6d2a09f0d3146",
      "transactionType": "CALL",
      "contractName": null,
      "contractAddress": "0xd962b16F4ec712D705106674E944B04614F077be",
      "function": "modifyLiquidity((address,address,uint24,int24,address),(int24,int24,int256),bytes)",
      "arguments": [
        "(0x6dA226CF30ff2482D5b015cC8EA889A6b4d37992, 0x76B97C7Af48A715b3CE9Fc3F11e43903F90040d7, 4000, 10, 0x1c02058071324404257118692F86FcfEe09Bbb55)",
        "(-600, 600, 10000000000000000000000)",
        "0x"
      ],
      "transaction": {
        "type": "0x02",
        "from": "0x49a8263044b8f24f316d19a79d1bac55f6f35b35",
        "to": "0xd962b16f4ec712d705106674e944b04614f077be",
        "gas": "0x8e2a6",
        "value": "0x0",
        "data": "0xbec999dd0000000000000000000000006da226cf30ff2482d5b015cc8ea889a6b4d3799200000000000000000000000076b97c7af48a715b3ce9fc3f11e43903f90040d70000000000000000000000000000000000000000000000000000000000000fa0000000000000000000000000000000000000000000000000000000000000000a0000000000000000000000001c02058071324404257118692f86fcfee09bbb55fffffffffffffffffffffffffffffffffffffffffffffffffffffffffffffda8000000000000000000000000000000000000000000000000000000000000025800000000000000000000000000000000000000000000021e19e0c9bab240000000000000000000000000000000000000000000000000000000000000000001200000000000000000000000000000000000000000000000000000000000000000",
        "nonce": "0x11",
        "accessList": []
      },
      "additionalContracts": [],
      "isFixedGasLimit": false
    }
  ],
  "receipts": [
    {
      "transactionHash": "0xbd8546240a88107c5dad23bfa34202649bc526803c9c24ab668402031a28dc5b",
      "transactionIndex": "0x1",
      "blockHash": "0x4445d6eaf4ae2ba784052f929bb0bce73fac2bfb38db3efdd1974f0b1f23308e",
      "blockNumber": "0x16dffdd",
      "from": "0x49A8263044b8f24F316D19a79D1bac55F6f35B35",
      "to": "0x6dA226CF30ff2482D5b015cC8EA889A6b4d37992",
      "cumulativeGasUsed": "0x14e7b",
      "gasUsed": "0x14e7b",
      "contractAddress": null,
      "logs": [
        {
          "address": "0x6dA226CF30ff2482D5b015cC8EA889A6b4d37992",
          "topics": [
            "0x8c5be1e5ebec7d5bd14f71427d1e84f3dd0314c0f7b2291e5b200ac8c7c3b925",
            "0x00000000000000000000000049a8263044b8f24f316d19a79d1bac55f6f35b35",
            "0x000000000000000000000000d962b16f4ec712d705106674e944b04614f077be"
          ],
          "data": "0x00000000000000000000000000000000000000000000003635c9adc5dea00000",
          "blockHash": "0x4445d6eaf4ae2ba784052f929bb0bce73fac2bfb38db3efdd1974f0b1f23308e",
          "blockNumber": "0x16dffdd",
          "transactionHash": "0xbd8546240a88107c5dad23bfa34202649bc526803c9c24ab668402031a28dc5b",
          "transactionIndex": "0x1",
          "logIndex": "0x0",
          "removed": false
        }
      ],
      "status": "0x1",
      "logsBloom": "0x00000000000000000000000000000000000000000000000000000000000000000000000000000000000000000000000000000002000000000000000000200000000000000000000000000000000000000000000000000000000000000000000000000000000000000000000000000000000000000000000000000008000000000040000000000000000000800000000000000000000000000000000000000000020000000000040010000800000000000000000000000000000000000000000000000000000000000000000000000000000000000000800000000000000000000010000000002000000000000000000000000000000000000000000000000000",
      "type": "0x2",
      "effectiveGasPrice": "0x5f5e100"
    },
    {
      "transactionHash": "0x0192fad3dcf04531605888e68c8d124decc047f96ca812d39bcb6e7ab15d36c3",
      "transactionIndex": "0x1",
      "blockHash": "0xef4c71ae8b1d35e9f70c568e70ec66ea80af0f8989d643ce10a33313e9d0fe43",
      "blockNumber": "0x16dfff7",
      "from": "0x49A8263044b8f24F316D19a79D1bac55F6f35B35",
      "to": "0x76B97C7Af48A715b3CE9Fc3F11e43903F90040d7",
      "cumulativeGasUsed": "0x14e7b",
      "gasUsed": "0x14e7b",
      "contractAddress": null,
      "logs": [
        {
          "address": "0x76B97C7Af48A715b3CE9Fc3F11e43903F90040d7",
          "topics": [
            "0x8c5be1e5ebec7d5bd14f71427d1e84f3dd0314c0f7b2291e5b200ac8c7c3b925",
            "0x00000000000000000000000049a8263044b8f24f316d19a79d1bac55f6f35b35",
            "0x000000000000000000000000d962b16f4ec712d705106674e944b04614f077be"
          ],
          "data": "0x00000000000000000000000000000000000000000000003635c9adc5dea00000",
          "blockHash": "0xef4c71ae8b1d35e9f70c568e70ec66ea80af0f8989d643ce10a33313e9d0fe43",
          "blockNumber": "0x16dfff7",
          "transactionHash": "0x0192fad3dcf04531605888e68c8d124decc047f96ca812d39bcb6e7ab15d36c3",
          "transactionIndex": "0x1",
          "logIndex": "0x0",
          "removed": false
        }
      ],
      "status": "0x1",
      "logsBloom": "0x00000000000000000000000000000000000000000000000000000000000000000000000000000000000000000000000000000002000000000000000000200000000000000000000000000000000000000000000000000020000000000000000000000000000000000000100000000000000000000000000000008008000000000000000000000000000000000000000000000000000000000000000000000000020000000000040010000800000000000000000000000000000000000000000000000000000000000000000000000000000000000000800000000000000000000010000000000000000000000000000000000000000000000000000000000000",
      "type": "0x2",
      "effectiveGasPrice": "0x5f5e100"
    },
    {
      "transactionHash": "0x123aea85624f7eac0a5830cc7771971292d563446d47a780dfb6d2a09f0d3146",
      "transactionIndex": "0x1",
      "blockHash": "0x1e081361f5e6d9c1cdb26456b028e3c592e3fed5231a3e0fa523580a5f52781c",
      "blockNumber": "0x16e0013",
      "from": "0x49A8263044b8f24F316D19a79D1bac55F6f35B35",
      "to": "0xd962b16F4ec712D705106674E944B04614F077be",
      "cumulativeGasUsed": "0x78070",
      "gasUsed": "0x78070",
      "contractAddress": null,
      "logs": [
        {
          "address": "0xE5dF461803a59292c6c03978c17857479c40bc46",
          "topics": [
            "0x541c041c2cce48e614b3de043c9280f06b6164c0a1741649e2de3c3d375f7974",
            "0x15b1c279c39bd58d6a48bbc40b7ae9e2686bbfa0d2c6f9532f695c6d59f1d600",
            "0x000000000000000000000000d962b16f4ec712d705106674e944b04614f077be"
          ],
          "data": "0xfffffffffffffffffffffffffffffffffffffffffffffffffffffffffffffda8000000000000000000000000000000000000000000000000000000000000025800000000000000000000000000000000000000000000021e19e0c9bab2400000",
          "blockHash": "0x1e081361f5e6d9c1cdb26456b028e3c592e3fed5231a3e0fa523580a5f52781c",
          "blockNumber": "0x16e0013",
          "transactionHash": "0x123aea85624f7eac0a5830cc7771971292d563446d47a780dfb6d2a09f0d3146",
          "transactionIndex": "0x1",
          "logIndex": "0x0",
          "removed": false
        },
        {
          "address": "0x8d3521ddf3E96D061b001841FD5D05C3545bD343",
          "topics": [
            "0xddf252ad1be2c89b69c2b068fc378daa952ba7f163c4a11628f55a4df523b3ef",
            "0x0000000000000000000000000000000000000000000000000000000000000000",
            "0x000000000000000000000000d962b16f4ec712d705106674e944b04614f077be"
          ],
          "data": "0x0000000000000000000000000000000000000000000000200a9bb851fc831552",
          "blockHash": "0x1e081361f5e6d9c1cdb26456b028e3c592e3fed5231a3e0fa523580a5f52781c",
          "blockNumber": "0x16e0013",
          "transactionHash": "0x123aea85624f7eac0a5830cc7771971292d563446d47a780dfb6d2a09f0d3146",
          "transactionIndex": "0x1",
          "logIndex": "0x1",
          "removed": false
        },
        {
          "address": "0x6dA226CF30ff2482D5b015cC8EA889A6b4d37992",
          "topics": [
            "0xddf252ad1be2c89b69c2b068fc378daa952ba7f163c4a11628f55a4df523b3ef",
            "0x00000000000000000000000049a8263044b8f24f316d19a79d1bac55f6f35b35",
            "0x000000000000000000000000e5df461803a59292c6c03978c17857479c40bc46"
          ],
          "data": "0x000000000000000000000000000000000000000000000010054ddc28fe418aa9",
          "blockHash": "0x1e081361f5e6d9c1cdb26456b028e3c592e3fed5231a3e0fa523580a5f52781c",
          "blockNumber": "0x16e0013",
          "transactionHash": "0x123aea85624f7eac0a5830cc7771971292d563446d47a780dfb6d2a09f0d3146",
          "transactionIndex": "0x1",
          "logIndex": "0x2",
          "removed": false
        },
        {
          "address": "0x76B97C7Af48A715b3CE9Fc3F11e43903F90040d7",
          "topics": [
            "0xddf252ad1be2c89b69c2b068fc378daa952ba7f163c4a11628f55a4df523b3ef",
            "0x00000000000000000000000049a8263044b8f24f316d19a79d1bac55f6f35b35",
            "0x000000000000000000000000e5df461803a59292c6c03978c17857479c40bc46"
          ],
          "data": "0x000000000000000000000000000000000000000000000010054ddc28fe418aa9",
          "blockHash": "0x1e081361f5e6d9c1cdb26456b028e3c592e3fed5231a3e0fa523580a5f52781c",
          "blockNumber": "0x16e0013",
          "transactionHash": "0x123aea85624f7eac0a5830cc7771971292d563446d47a780dfb6d2a09f0d3146",
          "transactionIndex": "0x1",
          "logIndex": "0x3",
          "removed": false
        }
      ],
      "status": "0x1",
      "logsBloom": "0x00000000100000000000400000000100000000000000000002000000000000000000000000000000000000000000000000000002000000000000800000000000000000000000000000000008000000000000000000000020000000000000000010000000020000000000100000000800000000000000000000008018000000000044000000000000000000800000000000000000000000040800000040000000000000000000040010000800000000000000000000000001000000000001000000000002020000000000000000000000000000000000800000000000000020000000000000002000040000000000000000000000000000000000000000000000",
      "type": "0x2",
      "effectiveGasPrice": "0x5f5e100"
    }
  ],
  "libraries": [],
  "pending": [],
  "returns": {},
  "timestamp": 1710648737,
  "chain": 421614,
  "commit": "f5152c4"
}