{
  "transactions": [
    {
      "hash": "0xe2bf7b87805f4969dfd35208703868f94d777a1c7ac87bbe62e082b0277d0711",
      "transactionType": "CALL",
      "contractName": null,
      "contractAddress": "0x6dA226CF30ff2482D5b015cC8EA889A6b4d37992",
      "function": "approve(address,uint256)",
      "arguments": [
        "0xd962b16F4ec712D705106674E944B04614F077be",
        "1000000000000000000000"
      ],
      "transaction": {
        "type": "0x02",
        "from": "0x49a8263044b8f24f316d19a79d1bac55f6f35b35",
        "to": "0x6da226cf30ff2482d5b015cc8ea889a6b4d37992",
        "gas": "0x18377",
        "value": "0x0",
        "data": "0x095ea7b3000000000000000000000000d962b16f4ec712d705106674e944b04614f077be00000000000000000000000000000000000000000000003635c9adc5dea00000",
        "nonce": "0x12",
        "accessList": []
      },
      "additionalContracts": [],
      "isFixedGasLimit": false
    },
    {
      "hash": "0xb0c13906c2b055a5f8538dae200d3a07637a3f4e1327e9a94e401c44179316f4",
      "transactionType": "CALL",
      "contractName": null,
      "contractAddress": "0x76B97C7Af48A715b3CE9Fc3F11e43903F90040d7",
      "function": "approve(address,uint256)",
      "arguments": [
        "0xd962b16F4ec712D705106674E944B04614F077be",
        "1000000000000000000000"
      ],
      "transaction": {
        "type": "0x02",
        "from": "0x49a8263044b8f24f316d19a79d1bac55f6f35b35",
        "to": "0x76b97c7af48a715b3ce9fc3f11e43903f90040d7",
        "gas": "0x18377",
        "value": "0x0",
        "data": "0x095ea7b3000000000000000000000000d962b16f4ec712d705106674e944b04614f077be00000000000000000000000000000000000000000000003635c9adc5dea00000",
        "nonce": "0x13",
        "accessList": []
      },
      "additionalContracts": [],
      "isFixedGasLimit": false
    },
    {
      "hash": "0xbe976f6acca66435db8be4119f577475d25202734e8c025e2d0c2d948bea20eb",
      "transactionType": "CALL",
      "contractName": null,
      "contractAddress": "0xd962b16F4ec712D705106674E944B04614F077be",
      "function": "modifyLiquidity((address,address,uint24,int24,address),(int24,int24,int256),bytes)",
      "arguments": [
        "(0x6dA226CF30ff2482D5b015cC8EA889A6b4d37992, 0x76B97C7Af48A715b3CE9Fc3F11e43903F90040d7, 4000, 10, 0x1c02058071324404257118692F86FcfEe09Bbb55)",
        "(-600, 600, 10000000000000000000000)",
        "0x"
      ],
      "transaction": {
        "type": "0x02",
        "from": "0x49a8263044b8f24f316d19a79d1bac55f6f35b35",
        "to": "0xd962b16f4ec712d705106674e944b04614f077be",
        "gas": "0x6941c",
        "value": "0x0",
        "data": "0xbec999dd0000000000000000000000006da226cf30ff2482d5b015cc8ea889a6b4d3799200000000000000000000000076b97c7af48a715b3ce9fc3f11e43903f90040d70000000000000000000000000000000000000000000000000000000000000fa0000000000000000000000000000000000000000000000000000000000000000a0000000000000000000000001c02058071324404257118692f86fcfee09bbb55fffffffffffffffffffffffffffffffffffffffffffffffffffffffffffffda8000000000000000000000000000000000000000000000000000000000000025800000000000000000000000000000000000000000000021e19e0c9bab240000000000000000000000000000000000000000000000000000000000000000001200000000000000000000000000000000000000000000000000000000000000000",
        "nonce": "0x14",
        "accessList": []
      },
      "additionalContracts": [],
      "isFixedGasLimit": false
    }
  ],
  "receipts": [
    {
      "transactionHash": "0xe2bf7b87805f4969dfd35208703868f94d777a1c7ac87bbe62e082b0277d0711",
      "transactionIndex": "0x3",
      "blockHash": "0x3d29a3bb5c4a8e098923a852094523e09a3fae83833c4972daf3f1707dc73670",
      "blockNumber": "0x16e0477",
      "from": "0x49A8263044b8f24F316D19a79D1bac55F6f35B35",
      "to": "0x6dA226CF30ff2482D5b015cC8EA889A6b4d37992",
      "cumulativeGasUsed": "0x4a087",
      "gasUsed": "0x1049d",
      "contractAddress": null,
      "logs": [
        {
          "address": "0x6dA226CF30ff2482D5b015cC8EA889A6b4d37992",
          "topics": [
            "0x8c5be1e5ebec7d5bd14f71427d1e84f3dd0314c0f7b2291e5b200ac8c7c3b925",
            "0x00000000000000000000000049a8263044b8f24f316d19a79d1bac55f6f35b35",
            "0x000000000000000000000000d962b16f4ec712d705106674e944b04614f077be"
          ],
          "data": "0x00000000000000000000000000000000000000000000003635c9adc5dea00000",
          "blockHash": "0x3d29a3bb5c4a8e098923a852094523e09a3fae83833c4972daf3f1707dc73670",
          "blockNumber": "0x16e0477",
          "transactionHash": "0xe2bf7b87805f4969dfd35208703868f94d777a1c7ac87bbe62e082b0277d0711",
          "transactionIndex": "0x3",
          "logIndex": "0x2",
          "removed": false
        }
      ],
      "status": "0x1",
      "logsBloom": "0x00000000000000000000000000000000000000000000000000000000000000000000000000000000000000000000000000000002000000000000000000200000000000000000000000000000000000000000000000000000000000000000000000000000000000000000000000000000000000000000000000000008000000000040000000000000000000800000000000000000000000000000000000000000020000000000040010000800000000000000000000000000000000000000000000000000000000000000000000000000000000000000800000000000000000000010000000002000000000000000000000000000000000000000000000000000",
      "type": "0x2",
      "effectiveGasPrice": "0x5f5e100"
    },
    {
      "transactionHash": "0xb0c13906c2b055a5f8538dae200d3a07637a3f4e1327e9a94e401c44179316f4",
      "transactionIndex": "0x1",
      "blockHash": "0x96fd5db8f0a8d27bd9ae22dfd1ac0f6f9a84fdcc7d2077d15648a51e6f5f05ca",
      "blockNumber": "0x16e0493",
      "from": "0x49A8263044b8f24F316D19a79D1bac55F6f35B35",
      "to": "0x76B97C7Af48A715b3CE9Fc3F11e43903F90040d7",
      "cumulativeGasUsed": "0x1049d",
      "gasUsed": "0x1049d",
      "contractAddress": null,
      "logs": [
        {
          "address": "0x76B97C7Af48A715b3CE9Fc3F11e43903F90040d7",
          "topics": [
            "0x8c5be1e5ebec7d5bd14f71427d1e84f3dd0314c0f7b2291e5b200ac8c7c3b925",
            "0x00000000000000000000000049a8263044b8f24f316d19a79d1bac55f6f35b35",
            "0x000000000000000000000000d962b16f4ec712d705106674e944b04614f077be"
          ],
          "data": "0x00000000000000000000000000000000000000000000003635c9adc5dea00000",
          "blockHash": "0x96fd5db8f0a8d27bd9ae22dfd1ac0f6f9a84fdcc7d2077d15648a51e6f5f05ca",
          "blockNumber": "0x16e0493",
          "transactionHash": "0xb0c13906c2b055a5f8538dae200d3a07637a3f4e1327e9a94e401c44179316f4",
          "transactionIndex": "0x1",
          "logIndex": "0x0",
          "removed": false
        }
      ],
      "status": "0x1",
      "logsBloom": "0x00000000000000000000000000000000000000000000000000000000000000000000000000000000000000000000000000000002000000000000000000200000000000000000000000000000000000000000000000000020000000000000000000000000000000000000100000000000000000000000000000008008000000000000000000000000000000000000000000000000000000000000000000000000020000000000040010000800000000000000000000000000000000000000000000000000000000000000000000000000000000000000800000000000000000000010000000000000000000000000000000000000000000000000000000000000",
      "type": "0x2",
      "effectiveGasPrice": "0x5f5e100"
    },
    {
      "transactionHash": "0xbe976f6acca66435db8be4119f577475d25202734e8c025e2d0c2d948bea20eb",
      "transactionIndex": "0x1",
      "blockHash": "0x80a53413a01d572f38e9d74b0d5fa2a2b911d8b9305efa8d0606925dd2a60602",
      "blockNumber": "0x16e04a9",
      "from": "0x49A8263044b8f24F316D19a79D1bac55F6f35B35",
      "to": "0xd962b16F4ec712D705106674E944B04614F077be",
      "cumulativeGasUsed": "0x4282c",
      "gasUsed": "0x4282c",
      "contractAddress": null,
      "logs": [
        {
          "address": "0xE5dF461803a59292c6c03978c17857479c40bc46",
          "topics": [
            "0x541c041c2cce48e614b3de043c9280f06b6164c0a1741649e2de3c3d375f7974",
            "0x15b1c279c39bd58d6a48bbc40b7ae9e2686bbfa0d2c6f9532f695c6d59f1d600",
            "0x000000000000000000000000d962b16f4ec712d705106674e944b04614f077be"
          ],
          "data": "0xfffffffffffffffffffffffffffffffffffffffffffffffffffffffffffffda8000000000000000000000000000000000000000000000000000000000000025800000000000000000000000000000000000000000000021e19e0c9bab2400000",
          "blockHash": "0x80a53413a01d572f38e9d74b0d5fa2a2b911d8b9305efa8d0606925dd2a60602",
          "blockNumber": "0x16e04a9",
          "transactionHash": "0xbe976f6acca66435db8be4119f577475d25202734e8c025e2d0c2d948bea20eb",
          "transactionIndex": "0x1",
          "logIndex": "0x0",
          "removed": false
        },
        {
          "address": "0x8d3521ddf3E96D061b001841FD5D05C3545bD343",
          "topics": [
            "0xddf252ad1be2c89b69c2b068fc378daa952ba7f163c4a11628f55a4df523b3ef",
            "0x0000000000000000000000000000000000000000000000000000000000000000",
            "0x000000000000000000000000d962b16f4ec712d705106674e944b04614f077be"
          ],
          "data": "0x0000000000000000000000000000000000000000000000200a9bb851fc831552",
          "blockHash": "0x80a53413a01d572f38e9d74b0d5fa2a2b911d8b9305efa8d0606925dd2a60602",
          "blockNumber": "0x16e04a9",
          "transactionHash": "0xbe976f6acca66435db8be4119f577475d25202734e8c025e2d0c2d948bea20eb",
          "transactionIndex": "0x1",
          "logIndex": "0x1",
          "removed": false
        },
        {
          "address": "0x6dA226CF30ff2482D5b015cC8EA889A6b4d37992",
          "topics": [
            "0xddf252ad1be2c89b69c2b068fc378daa952ba7f163c4a11628f55a4df523b3ef",
            "0x00000000000000000000000049a8263044b8f24f316d19a79d1bac55f6f35b35",
            "0x000000000000000000000000e5df461803a59292c6c03978c17857479c40bc46"
          ],
          "data": "0x000000000000000000000000000000000000000000000010054ddc28fe418aa9",
          "blockHash": "0x80a53413a01d572f38e9d74b0d5fa2a2b911d8b9305efa8d0606925dd2a60602",
          "blockNumber": "0x16e04a9",
          "transactionHash": "0xbe976f6acca66435db8be4119f577475d25202734e8c025e2d0c2d948bea20eb",
          "transactionIndex": "0x1",
          "logIndex": "0x2",
          "removed": false
        },
        {
          "address": "0x76B97C7Af48A715b3CE9Fc3F11e43903F90040d7",
          "topics": [
            "0xddf252ad1be2c89b69c2b068fc378daa952ba7f163c4a11628f55a4df523b3ef",
            "0x00000000000000000000000049a8263044b8f24f316d19a79d1bac55f6f35b35",
            "0x000000000000000000000000e5df461803a59292c6c03978c17857479c40bc46"
          ],
          "data": "0x000000000000000000000000000000000000000000000010054ddc28fe418aa9",
          "blockHash": "0x80a53413a01d572f38e9d74b0d5fa2a2b911d8b9305efa8d0606925dd2a60602",
          "blockNumber": "0x16e04a9",
          "transactionHash": "0xbe976f6acca66435db8be4119f577475d25202734e8c025e2d0c2d948bea20eb",
          "transactionIndex": "0x1",
          "logIndex": "0x3",
          "removed": false
        }
      ],
      "status": "0x1",
      "logsBloom": "0x00000000100000000000400000000100000000000000000002000000000000000000000000000000000000000000000000000002000000000000800000000000000000000000000000000008000000000000000000000020000000000000000010000000020000000000100000000800000000000000000000008018000000000044000000000000000000800000000000000000000000040800000040000000000000000000040010000800000000000000000000000001000000000001000000000002020000000000000000000000000000000000800000000000000020000000000000002000040000000000000000000000000000000000000000000000",
      "type": "0x2",
      "effectiveGasPrice": "0x5f5e100"
    }
  ],
  "libraries": [],
  "pending": [],
  "returns": {},
  "timestamp": 1710649054,
  "chain": 421614,
  "commit": "f5152c4"
}