{
  "transactions": [
    {
      "hash": "0x8332768ea501b598658b2d73ce8c6064171c725ce02fda6452ca46b0c924ba99",
      "transactionType": "CALL",
      "contractName": null,
      "contractAddress": "0xE5dF461803a59292c6c03978c17857479c40bc46",
      "function": "initialize((address,address,uint24,int24,address),uint160,bytes)",
      "arguments": [
        "(0x6dA226CF30ff2482D5b015cC8EA889A6b4d37992, 0x76B97C7Af48A715b3CE9Fc3F11e43903F90040d7, 4000, 10, 0x1c02058071324404257118692F86FcfEe09Bbb55)",
        "79228162514264337593543950336",
        "0x0000000000000000000000000000000000000000000000000000000065f667de"
      ],
      "transaction": {
        "type": "0x02",
        "from": "0x49a8263044b8f24f316d19a79d1bac55f6f35b35",
        "to": "0xe5df461803a59292c6c03978c17857479c40bc46",
        "gas": "0x286e5",
        "value": "0x0",
        "data": "0x695c5bf50000000000000000000000006da226cf30ff2482d5b015cc8ea889a6b4d3799200000000000000000000000076b97c7af48a715b3ce9fc3f11e43903f90040d70000000000000000000000000000000000000000000000000000000000000fa0000000000000000000000000000000000000000000000000000000000000000a0000000000000000000000001c02058071324404257118692f86fcfee09bbb55000000000000000000000000000000000000000100000000000000000000000000000000000000000000000000000000000000000000000000000000000000e000000000000000000000000000000000000000000000000000000000000000200000000000000000000000000000000000000000000000000000000065f667de",
        "nonce": "0x6",
        "accessList": []
      },
      "additionalContracts": [],
      "isFixedGasLimit": false
    }
  ],
  "receipts": [
    {
      "transactionHash": "0x8332768ea501b598658b2d73ce8c6064171c725ce02fda6452ca46b0c924ba99",
      "transactionIndex": "0x1",
      "blockHash": "0x21749b57e6f6363c32938d38753581a6dcce51f274e7e295ab70835c2ee47d3b",
      "blockNumber": "0x16deb00",
      "from": "0x49A8263044b8f24F316D19a79D1bac55F6f35B35",
      "to": "0xE5dF461803a59292c6c03978c17857479c40bc46",
      "cumulativeGasUsed": "0x1c352",
      "gasUsed": "0x1c352",
      "contractAddress": null,
      "logs": [
        {
          "address": "0xE5dF461803a59292c6c03978c17857479c40bc46",
          "topics": [
            "0x3fd553db44f207b1f41348cfc4d251860814af9eadc470e8e7895e4d120511f4",
            "0x15b1c279c39bd58d6a48bbc40b7ae9e2686bbfa0d2c6f9532f695c6d59f1d600",
            "0x0000000000000000000000006da226cf30ff2482d5b015cc8ea889a6b4d37992",
            "0x00000000000000000000000076b97c7af48a715b3ce9fc3f11e43903f90040d7"
          ],
          "data": "0x0000000000000000000000000000000000000000000000000000000000000fa0000000000000000000000000000000000000000000000000000000000000000a0000000000000000000000001c02058071324404257118692f86fcfee09bbb55",
          "blockHash": "0x21749b57e6f6363c32938d38753581a6dcce51f274e7e295ab70835c2ee47d3b",
          "blockNumber": "0x16deb00",
          "transactionHash": "0x8332768ea501b598658b2d73ce8c6064171c725ce02fda6452ca46b0c924ba99",
          "transactionIndex": "0x1",
          "logIndex": "0x0",
          "removed": false
        }
      ],
      "status": "0x1",
      "logsBloom": "0x00000000004000000000400000000100000010000000000000000000000010000000000000000000000000000000000000000000000000000000800000000000000000000000000000000000000020000000000000000000000000000000000000000000000000000000000000000000000000000000000000000000000000000004000000000000000000000000000000000000000000000000000000000000000000000000040000000000000000000000000000000000000000000000000000000000020000000000000000000000000000000000000000000000000000040000000000000000000000000000000000010000000002000000000000010000",
      "type": "0x2",
      "effectiveGasPrice": "0x5f5e100"
    }
  ],
  "libraries": [],
  "pending": [],
  "returns": {},
  "timestamp": 1710647276,
  "chain": 421614,
  "commit": "7177330"
}